:020000040800F2
:10000000301B00207D020008172C00086D28000816
:10001000152C00087B140008FB30000800000000CD
:10002000000000000000000000000000E5010008E2
:100030007D1400080000000029020008052F0008B8
:10004000970200089702000897020008970200082C
:10005000970200089702000897020008970200081C
:10006000970200089702000897020008970200080C
:1000700097020008970200089702000897020008FC
:1000800097020008970200089702000897020008EC
:1000900097020008970200089702000897020008DC
:1000A000970200089702000897020008892F0008AD
:1000B00097020008970200089702000897020008BC
:1000C00097020008970200089702000897020008AC
:1000D000970200089702000897020008970200089C
:1000E000970200089702000897020008970200088C
:1000F000970200089702000897020008970200087C
:10010000970200089702000897020008970200086B
:10011000970200089702000897020008952F000830
:10012000970200089702000897020008970200084B
:1001300000F002F800F047F80AA090E8000C8244B2
:100140008344AAF10107DA4501D100F03CF8AFF28F
:10015000090EBAE80F0013F0010F18BFFB1A43F0A5
:1001600001031847705D0000905D0000103A24BF45
:1001700078C878C1FAD8520724BF30C830C144BF0C
:1001800004680C607047000000230024002500264E
:10019000103A28BF78C1FBD8520728BF30C148BFEA
:1001A0000B607047662904F0A783002070471FB5D5
:1001B00000F026FC04000020002104F01FF9E0609C
:1001C0001FBD10B510BD00F01BFD1146FFF7EFFF7E
:1001D00002F0F4FF00F039FD03B4FFF7F2FF03BCB7
:1001E00000F07CFD224B19680868B0E8F00F80F33E
:1001F0000988BFF36F8F4FF0000080F311884EF035
:100200000D0E70470000000006480068006880F38B
:10021000088862B661B6BFF34F8FBFF36F8F00DF00
:1002200000BF00BF08ED00E0EFF30980BFF36F8F60
:100230000F4B1A6820E9F00F106008B54FF050001E
:1002400080F31188BFF34F8FBFF36F8F03F0B4FCBF
:100250004FF0000080F31188BDE808401968086875
:10026000B0E8F00F80F30988BFF36F8F704700BFCD
:1002700028000020EFF30580704700000948804700
:1002800009480047FEE7FEE7FEE7FEE7FEE7FEE778
:10029000FEE7FEE7FEE7FEE704480549054A064B90
:1002A00070470000852F000831010008301500203C
:1002B000301B002030170020301700200FB41CB571
:1002C0000C0007AA009001D02044401E074B7B443D
:1002D00069460190069800F050FB002C03D0694657
:1002E000002000F05DFB1CBC5DF814FBD90600008B
:1002F0002DE9F0474FF0000A89460446C0F820A0D7
:100300002046E1688847002876D0252806D0D4E921
:1003100001219047206A401C2062F1E7E1682046F5
:1003200000258847C4F81CA006460027C4F818A07A
:100330002A2E09D0304602F005FF38B304EB8708B7
:10034000303EC8F8186019E059F8041B204604EB49
:1003500087029161E1688847012F064618D1E0695C
:10036000002820DA25F020051DE0D8F8180000EB61
:10037000800006EB40003038C8F818002046E168DD
:100380008847064602F0DEFE0028EED1012F0AD093
:100390002E2E08D12046E16888477F1C0646022F92
:1003A00045F02005C4DBA069002803DA404245F08F
:1003B0000105A061E80701D025F01005B6B1A6F14E
:1003C0004100192802D8203645F400654A463146D6
:1003D000204625604D46FFF7E5FE58B1012806D0BE
:1003E000ED1D25F0070000F1080989E704E005F19B
:1003F000040985E730468AE7206ABDE8F087032ACA
:1004000040F2308010F0030C00F0158011F8013B31
:10041000BCF1020F624498BF11F801CB00F8013B18
:1004200038BF11F8013BA2F1040298BF00F801CBDC
:1004300038BF00F8013B11F0030300F02580083AB3
:10044000C0F0088051F8043B083A51F804CBA0E80A
:100450000810F5E7121D5CBF51F8043B40F8043B5F
:10046000AFF30080D20724BF11F8013B11F801CB94
:1004700048BF11F8012B24BF00F8013B00F801CB65
:1004800048BF00F8012B704710B5203AC0F00B8030
:10049000B1E81850203AA0E81850B1E81850A0E888
:1004A0001850BFF4F5AF5FEA027C24BFB1E81850E2
:1004B000A0E8185044BF18C918C0BDE810405FEA52
:1004C000827C24BF51F8043B40F8043B08BF7047CE
:1004D000D20728BF31F8023B48BF11F8012B28BFD3
:1004E00020F8023B48BF00F8012B704702F0FF03E1
:1004F00043EA032242EA024200F061BA4FF00002EE
:1005000000B5134694469646203922BFA0E80C5009
:10051000A0E80C50B1F12001BFF4F7AF090728BFE4
:10052000A0E80C5048BF0CC05DF804EB890028BF60
:1005300040F8042B08BF704748BF20F8022B11F089
:10054000804F18BF00F8012B704770477047704705
:1005500070472DE9FF4F0C461E464FF0FF378BB01A
:10056000D2E90001DDF860800A908A46C1F30A559D
:1005700005B93D46002108464FF00000BAF1000FD2
:1005800000F4400005DA00EB80004FF4400101EA7E
:1005900050004FEA9059B9F1010F00DDB9460A98B1
:1005A00050EA4A000ED044F61050A5F2FF354543FC
:1005B0002F14B8F1000F1ED07542291E1EDDC9F19F
:1005C00000021CE0B8F1010F4FF0000001D0302113
:1005D00003E0F24305E02154401CB042FBDB30460F
:1005E0000022002121540B99C1F80880C1E90020A4
:1005F0000FB0BDE8F08FBD1B6D1CDEE74A4600DA88
:10060000694206A800F086FA06AB93E8070003AB40
:1006100083E8070050460A9900F067FB8DE8070061
:10062000A0F500501F3800900398002D0ADD42F21B
:100630001F014A460844002303A90390684600F0BE
:10064000D0FD09E0A0F500504A461F38002303A959
:100650000390684600F0DAFD8DE807000004000C06
:1006600003D04FF0FF30410800E01046B8F1000F12
:1006700003D00022009215461EE0751E05D400F03E
:10068000C3F9303262556D1EF9D5B34601220843D5
:1006900002D000227F1C04E02078302801D1002203
:1006A0007F1E002A099784D01DE0112D07DA00F083
:1006B000ABF9303262556D1C50EA0102F5D10843A6
:1006C00002D00098C8B10EE00021681E05E0235C4E
:1006D000625C63542254401E491C8142F7DBAB46E6
:1006E000A81B401E0990002004F80B000B98099AE3
:1006F000C0F80880C0E9002B7AE711264FF0000807
:1007000057E72DE9F04F88460446D21D22F0070135
:1007100091B0D1E90001CDE90A0102F0EFFC0246F7
:100720000B98C00F01D02D2007E02068810701D56C
:100730002B2002E0202101EAC000032A099001D009
:10074000072A05DB03464146204600F0A3F90BE1EA
:100750002078800601D5E06900E00620B8F1650F39
:10076000814606D0B8F1660F18D0B8F1670F70D186
:1007700031E00020B9F1110F009001DB112301E0FD
:1007800009F101030AAA01A90CA8FFF7E2FEDDE9BD
:100790000C70002609F10105834647E001204B4615
:1007A00000904FF000470AAA01A90CA8FFF7D1FE5C
:1007B000DDE90DB00C995D46002610B909F1010084
:1007C0000D18B9EB050003D4C0F1FF3609F101059E
:1007D000A5EB09002BE0B9F1010F01DA4FF0010997
:1007E0000020B9F1110F0090484601DD112300E00F
:1007F00003460AAA01A90CA8FFF7ABFEDDE90C70BD
:100800004D4600268346207800070AD4AB4500DA1F
:100810005D4601A8012D04DD411911F8011C3029A4
:1008200007D04F4502DA17F1040F04DA012082469F
:100830000FE06D1EEEE7002F02DCED1B3E4403E0EF
:10084000781CA84200DD7D1CB81B00F1010A4FF0A6
:1008500000472078000703D4AA4501DB4FF0FF3A98
:100860000021B7F1004F0DF143088DF8431024D05B
:1008700002202B23002F01DA7F422D230A21021EA2
:10088000A0F1010000DC5FB197FBF1FC97FBF1F2F6
:1008900001FB1C7C17460CF1300C08F801CDEEE78B
:1008A000A8F1010003702188090501D5452100E068
:1008B0006521A0F1010800F8011C09980FA9A1EB1E
:1008C0000807FF1D00B10120411901EBEA70A16981
:1008D0003844081A401EA0612078C00602D4204681
:1008E000AFF30080099828B1D4E901219047206A2C
:1008F000401C20622078C00622D52046AFF300803D
:100900001EE0002E04DBB34502DD01A8805D00E09F
:100910003020D4E901219047206A401C2062761CD7
:10092000AAF101005FEA000A0AD100F069F8C06884
:100930000168405CD4E901219047206A401C206294
:10094000281EA5F10105DCDC07E0D4E9012118F837
:10095000010B9047206A401C2062381EA7F1010756
:10096000F3DC2046AFF30080032011B041E6000025
:1009700001694A1C02610878704700B58FB0CDE963
:1009800001310021059105497944CDE90310114653
:100990006846FFF7ADFC0FB000BD0000E5FFFFFFAC
:1009A0000A6802F8010B0A607047D1E900239A42F5
:1009B00002D2531C0B60107070474FF000020429E4
:1009C000C0F0128010F0030C3FF49AADCCF1040C8F
:1009D000BCF1020F18BF00F8012BA8BF20F8022BB2
:1009E000A1EB0C01FFF78CBD5FEAC17C24BF00F8CE
:1009F000012B00F8012B48BF00F8012B70470000C5
:100A000000487047F014002030B5B0F10A024FEAF8
:100A1000900E71F100034EEA817EB0EB0E0061EBA7
:100A200091014FEA101E4EEA017E10EB0E0041EBE1
:100A300011114FEA102E4EEA016E10EB0E0041EB41
:100A400011214FEA104E4EEA014E10EB0E0041EB21
:100A50001141401841F100014FEAD00040EA4170D5
:100A60004FEAD10110EB80054FEA810444EA90740B
:100A700044EB01046D1944EB0404521BA3414FF0F5
:100A8000000348BF0A3200D530BD401C41F10001CF
:100A900030BD00002DE9F0411F46044603260168E1
:100AA000072A01F4006004DB08B116A505E016A5CD
:100AB00003E008B115A500E015A521F010002060A5
:100AC000A069C01EA0610FB1401EA0612046AFF317
:100AD00000804FB1D4E9012138469047206A401C7C
:100AE0002062C01C206206E0206AFAE7D4E90121F6
:100AF00015F8010B9047761EF8D22046AFF3008020
:100B0000BDE8F0814E414E006E616E00494E4600D8
:100B1000696E66002DE9F047814616468AB0354871
:100B200078440DC88DE80D0032487844801C03AC31
:100B30000DC884E80D0041F69B300844372190FB36
:100B4000F1F290FBF1F5A5F1800501FB12041B3CCD
:100B500002D56442012000E00020DFF898A0804622
:100B60000027FA44AAF1BE0A0EE0E0070AD0324696
:100B7000684607EB470101230AEB810100F046FBC1
:100B80008DE8070064107F1C002CEED1194F7F44C4
:100B9000AE3F19E0E80715D007EB04100DF1180A75
:100BA00090E80E008AE80E00C068F04201D1981962
:100BB00008903246012306A903A800F027FB03ABE7
:100BC00083E807006D10641C002DE3D14FF0010392
:100BD00032466946B8F1000F03A802D000F001FBCD
:100BE00001E000F013FBC9E90001C9F808200AB0D0
:100BF000BDE8F0878053000000487047D014002003
:100C00007546FFF7F9FFAE4605006946534620F0EA
:100C10000700854618B020B5FFF73EFBBDE8204031
:100C20004FF000064FF000074FF000084FF0000BA8
:100C300021F00701AC46ACE8C009ACE8C009ACE85B
:100C4000C009ACE8C0098D46704710B50446AFF343
:100C500000802046BDE81040FFF7BEBA4FF0013CCF
:100C600050F8042B51F8043B9A4221D1A2EB0C031B
:100C7000934313EACC1317D150F8042B51F8043BDB
:100C80009A4215D1A2EB0C03934313EACC130BD178
:100C900050F8042B51F8043B9A4209D1A2EB0C0303
:100CA000934313EACC13DBD04FF00000704700BF32
:100CB000D01A01BAB1FA81F101F0180122FA01F05B
:100CC000CB40C1F12001DBB2C0B2C01A2CFA01F353
:100CD000D11A914311EAC311E6D170470149182096
:100CE000ABBEFEE72600020070475FEA400C08BF7B
:100CF00091F0000F4FEA8C234FEAC12243EA515191
:100D00004FEA1C5018BF00F5F0404FEA300018BF02
:100D100041F000415FEA6C5C00F02980BCF1FF3FCC
:100D200008BF40F080407047130C06BF12044FF01C
:100D3000100C4FF0000C130E04BF12020CF1080C43
:100D4000130F04BF12010CF1040C930F04BF9200A7
:100D50000CF1020CD30F04BF52000CF1010C114630
:100D60004FF00002A0F11F00A0EB0C00704711F043
:100D7000004F08BF704731F000413FF4D5AF0B0C76
:100D800006BF09044FF0100C4FF0000C0B0E04BF0F
:100D900009020CF1080C0B0F04BF09010CF1040C43
:100DA0008B0F04BF89000CF1020CCB0F04BF49006C
:100DB0000CF1010CCCF12003A0EB0C0022FA03F3A0
:100DC00002FA0CF241EA030100F10100704720F041
:100DD0007F4C80EA030023F07F47ACEB070303F569
:100DE0007C5300F0004003F1FF032DE980494FEAF6
:100DF000154B09B44FEA144325EA0B4E24EA034885
:100E00000FF2042606EB132749083E785FEA320208
:100E100003FB0667C7F5000707FB06F64FEA5437E2
:100E20004FEAD64606F1020607FB066CCCF1005CE1
:100E30004FEA1C472CEA074C07FB06F40CFB06F5AF
:100E400004EB15464FEA961634BF00204FF00040E1
:100E50004FEAD13706FB07FC4FEA1C4C0CFB0BF7A3
:100E6000D21B03FB0CF761EB07010CFB0EF7B0EB99
:100E7000074072EB17420CFB08F734BFA2EB0742A6
:100E8000B2EB074261EB17414FEA0C444FEA91077E
:100E900006FB07FC4FEA1C4C0CFB0BF7B0EBC74002
:100EA00072EB573203FB0CF734BFA2EBC742B2EB35
:100EB000C74261EB57310CFB0EF7B0EBC70072EB8A
:100EC00057720CFB08F734BFA2EBC702B2EBC702A4
:100ED00061EB5771039F4FEA816141EA921104EB84
:100EE000CC044FEAD1374FEA826206FB07FC42EAA4
:100EF00090124FEA80604FEA1C4C0CFB0BF7D21BA0
:100F000003FB0CF761EB07010CFB0EF7B0EB07409E
:100F100072EB17420CFB08F734BFA2EB0742B2EBAF
:100F2000074261EB17414FEA8C554FEA910704EBFA
:100F30009C2406FB07FC4FEA1C4C0CFB0BF7B0EBA8
:100F4000C74072EB573203FB0CF734BFA2EBC7422A
:100F5000B2EBC74261EB57310CFB0EF7B0EBC700A9
:100F600072EB57720CFB08F734BFA2EBC702B2EB6F
:100F7000C70261EB577115EB4C254FEA816141EADD
:100F800092114FEA82624FEAD13742EA901206FB91
:100F900007FC44F100044FEA80604FEA1C4C0CFB54
:100FA0000BF7D21B03FB0CF761EB07010CFB0EF7F1
:100FB000B0EB074072EB17420CFB08F734BFA2EB13
:100FC0000742B2EB074261EB174115EB1C154FEAE4
:100FD000813141EA92414FEA823242EA90424FEA3D
:100FE00080304FEA0C7644F1000448EA03434EEAAD
:100FF0000B484FF0000EB2EB080C71EB030724BF57
:10100000624639464EEB0E0E4FF0000B001852416F
:1010100049414BEB0B0BB2EB080C71EB03077BF177
:10102000000B24BF624639464EEB0E0E4FF0000B0C
:101030000018524149414BEB0B0BB2EB080C71EB22
:1010400003077BF1000B24BF624639464EEB0E0EC0
:1010500051EA020718BF46F0010616EB0E7655F16D
:10106000000254F1000103D5BDE88901BDE8008804
:10107000BDE88901BDE80048B619524141EB0101C4
:10108000A3F10103704780807F7E7D7C7B7A797835
:10109000777676757473727171706F6E6E6D6C6C3D
:1010A0006B6A6A69686867666665646463636261DF
:1010B0006160605F5F5E5E5D5D5C5C5B5B5A5A5960
:1010C00059585857575656555555545453535252CC
:1010D0005251515050504F4F4F4E4E4D4D4D4C4C24
:1010E0004C4B4B4B4A4A4A4949494848484747476D
:1010F00047464646454545444444444343434342AA
:10110000424242414141002B9C4630D477002BD0D3
:101110001CB54FEA370703B44FF010004FF0100131
:10112000BAF1000F06D0BCF1000FDCBF40F00800A0
:1011300040F008014FF000000FBCBDE810400BF17B
:10114000010BBBF1010F08BF5FEA170722BF12F1C5
:10115000010211F101014FF0004143F1000300F0E1
:10116000004043EA00007047F9D35708D0E746EA49
:10117000064613F1400F4FEA16461FDD13F1200F0C
:10118000DFBF16430A46002120335B42BED0C3F1C5
:10119000200746EA064602FA07F74FEA164646EAED
:1011A0000706C3F1200722FA03F201FA07F721FA32
:1011B00003F14FF0000342EA0702A7E746EA0206FE
:1011C00046EA06464FEA164646EA0106BCBF46EA2C
:1011D0000646360C4FF000034FF000024FF00001BE
:1011E00094E72DE9804C9A46934670B491E8380014
:1011F00007C831EA400C48BF34EA430C03D5FFF777
:10120000E6FDFFF780FFF0BCBDE8008C2DE9804CC7
:101210009A46934670B491E8380007C810F0804FA2
:1012200008BF13F0804F03D100F005F8FFF76BFF04
:10123000F0BCBDE8008C20F07F4780EA030023F07B
:101240007F4C07EB0C03A3F57C5300F00040A3F1A7
:10125000FE0392F0000F00F0B38095F0000F00F055
:1012600077802DE901494FEA11404FEA144621EAFF
:10127000004800FB06FC24EA064708FB06F607FBCD
:1012800008F800FB07F718EB06484CEB164C4FEA42
:10129000124B18EB07484FEA15464CEB174022EA71
:1012A0000B4E0BFB06FC25EA06470EFB06F607FB7A
:1012B0000EFE0BFB07F71EEB064E4CEB164C4FF0E9
:1012C00000061EEB074E4CEB174B18EB0B0840F1DA
:1012D000000018EB0E0B58EB000840F100008F1ACD
:1012E0004FF000013CBFC943661B14BFB5EB040CB3
:1012F00000213CBFC943F61B4FEA17444EEA8E0E4D
:1013000027EA04454FEA1C4704FB07622CEA074C16
:1013100005FB07F70CFB05F604FB0CFC16EB074678
:1013200042EB174216EB0C4642EB1C421BEB060647
:1013300058EB0202414146EA9E0601D5BDE801890B
:10134000B619524141EB0101A3F10103BDE8018946
:101350004FEA14454FEA114724EA054621EA074CB3
:1013600005FB07F406FB07F70CFB06F105FB0CFC7D
:1013700011EB074144EB17444FEA124711EB0C41C4
:1013800044EB1C4422EA074C05FB07F206FB07F777
:101390000CFB06F605FB0CFC16EB074642EB17426E
:1013A00016EB0C4642EB1C456A1854F1000148BF8D
:1013B0007047B619524141EB0101A3F10103704797
:1013C00095F0000F37D04FEA11424FEA144721EA57
:1013D000024624EA074C02FB07F106FB07F70CFB69
:1013E00006F402FB0CFC14EB074441EB17414FEAF7
:1013F000154714EB0C4441EB1C4125EA074C02FB5A
:1014000007F506FB07F70CFB06F602FB0CFC16EBD8
:10141000074645EB174516EB0C4645EB1C421219E7
:1014200051F1000148BF7047B619524141EB01012B
:10143000A3F1010370474FEA14454FEA114724EA2C
:10144000054621EA074C05FB07F106FB07F70CFBF5
:1014500006F24FF0000605FB0CFC12EB074241EBD5
:10146000174112EB0C4251EB1C4148BF70479218D8
:1014700041EB0101A3F101037047FEE77047000053
:1014800070B5044600F014F90546601C02D004480B
:101490000078044400F00CF9401BA042FAD370BD60
:1014A000180000202DE9F84FDFF8C8910024A9F1B9
:1014B000040B23460F2709F1040AABF1040ED1E017
:1014C0000125A54006EA0502AA4276D1DFF8A8C1A7
:1014D0004E68A6EB0C0866452BD00DDC032E34D0ED
:1014E00005DC36B3012E19D0022E2FD11BE0112EB0
:1014F00016D0122E2AD119E0B8F5881F19D006DCB3
:10150000B8F5803F15D0B8F5801F1FD111E0B8F5B0
:10151000001F0ED0B8F5041F18D10AE0CB6815E003
:10152000CB681B1D12E0CB6808330FE0CB680C338F
:101530000CE08B682BB1012B4FF0080303D0456101
:1015400004E0042302E0056100E00023FF2A01D843
:10155000064601E000F104064FEA840501D9A5F131
:101560002005D6F8008007FA05FC28EA0C0803FAE3
:1015700005F548EA0508C6F800804D68ED0070D50D
:101580003E4DAE6946F00106AE61AD6924F003063A
:1015900005F0010500953A4D06EB050CDCF8085006
:1015A000A607360F07FA06F825EA0805DFF8D48003
:1015B000404503D14FF0000825E052E0DFF8C88035
:1015C000404502D14FF001081DE0DFF8C0804045E2
:1015D00002D14FF0020816E0DFF8B480404502D196
:1015E0004FF003080FE0DFF8AC80404502D14FF028
:1015F000040808E0DFF8A080404502D14FF005085C
:1016000001E04FF0060808FA06F848EA0508CCF8A9
:1016100008804D68D9F80060ED024D4601D51643AB
:1016200000E096432E604D68DAF80060AD02554642
:1016300001D5164300E096432E604D68DBF800604C
:10164000AD035D4601D5164300E096432E604D681C
:10165000DEF80060ED03754601D5164300E09643C1
:101660002E60641C0A681646E2407FF429AFBDE88C
:10167000F88F000008040140000011100010024023
:101680000000014000080140000C01400010014032
:101690000014014000180140001C0140806808400F
:1016A00000D0012070470AB1016170470904FBE7CF
:1016B00001488068704700001800002070B50400E1
:1016C00025D094F83D00002520B984F83C502046F0
:1016D00000F004FA242084F83D002068016821F01D
:1016E000010101602068016841F400410160206847
:1016F000016821F40041016000F09EFB4D4A6168E1
:10170000914201D84C4900E04C49884201D2012065
:1017100070BD4B492368B0FBF1F15E6826F03F06CF
:101720000E435E606368934206D94FF49673594343
:101730004FF47A73B1FBF3F12368491C1E6A26F05B
:101740003F06314319626168914210D84900401E3A
:10175000B0FBF1F2521CC2F30B02042A01D20420A6
:1017600022E0B0FBF1F0401CC0F30B001CE0A268CB
:10177000F2B301EBC10303EB0116431EB3FBF6F317
:101780005B1C43F480431B0549D092B301EBC102BB
:1017900002EB0111401EB0FBF1F0401CC0F30B0046
:1017A00040F4804040F400402168CA694CF6FF7361
:1017B0009A431043C861D4E90710014320680268C6
:1017C00022F0C00211430160D4E903010143206803
:1017D000826848F2FF339A4311438160D4E90501DE
:1017E00008432168CA6822F0FF021043C86001E084
:1017F0000EE016E02068016841F0010101602564F7
:10180000202084F83D00256384F83E50002070BD00
:1018100001EB4106431EB3FBF6F35B1CB3E701206B
:10182000C2E701EB4101401EB0FBF1F0401CC0F3E8
:101830000B00B7E7A086010080841E0000093D0070
:1018400040420F002DE9FF4F81B089460446FFF763
:101850002FFF054694F83D004FF0000820287DD169
:101860001923012250492046009501F091F80028E3
:1018700074D194F83C00012870D0012084F83C0019
:1018800020680168C90703D1016841F001010160C6
:101890002068016821F400610160242084F83D0083
:1018A000002626644148E0624FF0011B2027206893
:1018B000016841F48071016000950022594620467C
:1018C000049B01F065F850B120680068C00502D59E
:1018D0004FF400702064032005B0BDE8F08F21684C
:1018E00009F0FE000861FFF7E3FE2168054648693C
:1018F0004969C0F34000C1F380214FF0A00A0FE016
:10190000FFF7D6FE411B0498814200D808B984F83D
:101910003DA0216848694969C0F34000C1F38021B6
:1019200094F83D20A02A02D008B90029E8D084F814
:101930003D7020684169C943890716D4016841F4A4
:1019400000710160206841698069192301221649EC
:101950002046009501F01CF8B8B900E021E084F8B9
:101960003D7084F83C600020B6E7016841F40071E6
:10197000016021686FF480604861192301220A49DF
:101980002046009501F004F808B10120A4E703986F
:1019900008F1010880458AD384F83D7084F83C60E2
:1019A000F3E7022098E70000020010000000FFFFAC
:1019B0002DE9F84F1F4690468A460446DDF82890E8
:1019C000FFF776FE054694F83D0020287FD11923C5
:1019D000012240492046009500F0DAFF002876D128
:1019E00094F83C00012872D0012084F83C00206863
:1019F0000168C90703D1016841F001010160206855
:101A0000016821F400610160212084F83D0010206C
:101A100084F83E0000262664C4F824806785608D23
:101A200020852D48E0622B464A465146204600F06C
:101A300035FF90B9206841698069009036E02A46F8
:101A40004946204601F04AF850B1206C042804D1E0
:101A50002068016841F4007101600120BDE8F88F41
:101A6000606A216800780861606A401C6062618D6C
:101A7000491E6185218D491E89B2218522685369DD
:101A8000DB435B070BD451B100781061606A401CE6
:101A90006062608D401E6085208D401E20852A4634
:101AA0004946204600F048FF0028CED1208D00286E
:101AB000C5D154F83D0B016841F40071016020204C
:101AC00004F81E09E67766770020C7E7FFE70220E3
:101AD000C4E70000020010000000FFFF10B586B050
:101AE0000021009101910291039100680F49884201
:101AF0001AD10F4CA06940F00800A061A0696946A6
:101B000000F008000490C0200090122001900320F3
:101B100003900848FFF7C6FCE06940F40010E0615C
:101B2000E06900F40010049006B010BD00540040BD
:101B300000100240000C0140024881680278114404
:101B40008160704718000020074810B5016841F017
:101B500010010160032000F0A7F80F2000F006F844
:101B600000F050F8002010BD0020024030B50546BE
:101B70001F4887B0C16941F02001C161C06906A951
:101B800000F02000009001A800F036F90498B0B1F0
:101B900000F052F940001749174AB0FBF1F117481D
:101BA000491E0260416040F2E7320021C0E9032192
:101BB0008160816100F046FB040003D015E000F075
:101BC0003BF9E8E70D4800F06BFB04000DD137202E
:101BD00000F03CF8102D07D200222946372000F0F3
:101BE00043F80748056000E0012407B0204630BDF7
:101BF0000010024040420F000014004098030020F3
:101C00001C0000200F4808B5816941F00101816185
:101C1000816901F001010091C16941F08051C16108
:101C2000C069002200F0805000900F21901E00F04B
:101C30001BF80548416821F0E06141F00071416006
:101C400008BD00000010024000000140002809DB30
:101C500000F01F02012191404009800000F1E020C6
:101C6000C0F8001170470000F0B40E4B1B680C4622
:101C7000C3F30223C3F10705042D00D90425191D60
:101C8000072901D2002300E0DB1E012606FA05F138
:101C9000491E214099409E40761E16403143F0BCBB
:101CA00001F040BA0CED00E0064900F007020868B8
:101CB0004FF6FF03184040EA0220034A1043086031
:101CC000704700000CED00E00000FA052DE9F04738
:101CD0000F46050061D0434E306800F00700B8425F
:101CE00009D2306820F0070038433060306800F0D7
:101CF0000700B84251D128683B4C810712D54007F4
:101D000003D5606840F4E06060602878000703D580
:101D1000606840F4605060606068A96820F0F0007E
:101D2000084360602878C00728D06868012810D070
:101D30002168022810D0890700292EDA616821F075
:101D4000030101436160FFF7B3FC804641F288392B
:101D50000DE021688903EFE78901EDE7FFF7A8FCB3
:101D6000A0EB0801494502D90320BDE8F08760686F
:101D7000696800F00C00B0EB810FEFD1306800F023
:101D80000700B8420BD9306820F0070038433060B4
:101D9000306800F00700B84201D00120E5E728785C
:101DA000400705D56068E96820F4E060084360609A
:101DB0002878000706D56068296920F4605040EA59
:101DC000C100606000F048F86168084AC1F303117F
:101DD000515CC8400649086006480068FFF7C6FE27
:101DE0000020C2E7002002400010024046490008DF
:101DF000240000201C0000200F2202600C4A5368BF
:101E000003F003034360536803F0F00383605368F7
:101E100003F4E063C36052684FF4E06303EAD20264
:101E200002610448006800F0070008607047000085
:101E3000001002400020024004480549006849683B
:101E4000044AC1F30221515CC840704724000020BD
:101E500000100240564900080E4A51680E4801F031
:101E60000C03042B11D0082B0FD10C48C1F3834372
:101E7000C903C05C0AD55168084AC1F34041921EAB
:101E8000515C054A5043B0FBF1F0704704494843A8
:101E9000704700000010024000127A003649000826
:101EA00000093D002DE9F84F040070D02078C04DA6
:101EB000C00749D06868C0F38100012807D068686E
:101EC000C0F38100022809D16868C00306D52868DC
:101ED000800339D560680028E7D035E06068B0F548
:101EE000803F0BD010B1B0F5A02F11D0286820F49E
:101EF00080302860286820F4802002E0286840F4C0
:101F000080302860606890B1FFF7D2FB06460AE097
:101F1000286840F480202860F0E700BFFFF7C8FB86
:101F2000801B642873D828688003F7D50CE0FFF77E
:101F3000BFFB064605E000BFFFF7BAFB801B642825
:101F4000F0D828688003F7D420789A4E80074FF0A5
:101F500001094FF0000839D5686810F00C0F07D060
:101F60006868C0F38100022809D16868C00306D4FC
:101F70002868800714D52069012808D110E020695D
:101F8000B0B1C6F80090FFF793FB074605E00AE101
:101F9000FFF78EFBC01B0228C4D828688007F7D53E
:101FA0002868616920F0F80040EAC10028600DE06F
:101FB000C6F80080FFF77CFB074604E0FFF778FBDC
:101FC000C01B022823D828688007F7D42078000790
:101FD0002CD57948A169D9B1C0F80090FFF768FB0A
:101FE000074604E0FFF764FBC01B02280FD8686AAD
:101FF0008007F7D571484FF4FA510068B0FBF1F053
:10200000009000BF0098411E0091FAD20EE080E0DF
:10201000C0F80080FFF74CFB074604E0FFF748FBE1
:10202000C01B022875D8686A8007F7D4207840075B
:1020300060D5E8690027C00008D4E86940F0805006
:10204000E861E869012700F0805000905C48016871
:10205000C90513D40168834641F480710160FFF71C
:1020600027FB824606E000BFFFF722FBA0EB0A0039
:1020700064284ED8DBF80000C005F5D5E0680128DB
:102080000AD008B1052813D0286A20F00100286280
:10209000286A20F0040002E0286A40F0010028626B
:1020A000E06841F2883B98B1FFF702FB82460BE003
:1020B000286A40F004002862EEE700BFFFF7F8FA54
:1020C000A0EB0A0159455AD8286A8007F6D50CE0DA
:1020D000FFF7EEFA824605E0FFF7EAFAA0EB0A0105
:1020E00059454CD8286A8007F6D41FB1E86920F01A
:1020F0008050E861E06988B36968C1F38101022911
:1021000044D00228C6F8608004D0FFF7D1FA044614
:1021100038E034E0FFF7CCFA074604E0FFF7C8FAEE
:10212000C01B02282BD828688001F7D4206AB0F59C
:10213000803F05D16868A16820F4003008436860DA
:10214000D4E908010843696821F474110843686000
:10215000C6F86090FFF7ACFA044606E025E000BF41
:10216000FFF7A6FA001B022809D828688001F7D5D6
:102170001BE000BFFFF79CFA001B022802D90320D6
:10218000BDE8F88F28688001F4D40EE00128F7D06C
:102190006868226A00F48031914204D1616A00F4D7
:1021A0007010884201D00120EAE70020E8E7000033
:1021B00000100240000042428004424224000020FD
:1021C000007000407047704770B590F83C20012ABD
:1021D0002CD0012480F83C40022280F83D20036886
:1021E0005A689D6822F070060A6832435A60104BA4
:1021F00002689A420ED00F4B9A420BD0B2F1804F38
:1022000008D00D4B9A4205D00C4B9A4202D00C4B91
:102210009A4204D1496825F080031943916080F8FF
:102220003D40002180F83C10084670BD022070BD82
:10223000002C014000340140000400400008004030
:10224000000C004010B5040003D094F83D0010B11C
:1022500007E0012010BD002084F83C00204600F07B
:102260001EF8022084F83D00211D206800F098FE31
:10227000012084F8460084F83E0084F83F0084F88A
:10228000400084F8410084F8420084F8430084F858
:10229000440084F8450084F83D00002010BD7047DC
:1022A00090F83D10012901D001207047022180F8EB
:1022B0003D100168CA6842F00102CA6000680E4918
:1022C00088420ED00D4988420BD0B0F1804F08D023
:1022D0000B49884205D00B49884202D00A498842FE
:1022E00004D1816801F00701062903D0016841F09B
:1022F0000101016000207047002C014000340140C2
:102300000004004000080040000C004070B5054685
:10231000007F012822D1234C207870B101281DD1E3
:102320000021284600F062FAA060296800264E626B
:102330006168884213D9401A19E00021284600F04C
:1023400055FA6060012020702868016A21F00A01B6
:1023500001622868016A41F00201016270BD814298
:1023600001D8E06804E04FF6FF72511A0844E060BB
:1023700002F0E4F900220C4B02F088F802F054F865
:10238000206126702868016A21F00A01016228682C
:10239000016A016205480068C16821F00201C1605C
:1023A00070BD00000000002000004D40FC00002037
:1023B0002DE9F041054690F83C0000260C46012826
:1023C00010D0012085F83C0072B1042A1CD0082AE4
:1023D0002CD00C2A50D00126002085F83C00304635
:1023E000BDE8F0810220FBE7D4E90012E368286829
:1023F00000F032FE2868816921F00C0181612868B3
:102400008169A26811430FE0D4E90012E3682868EB
:1024100000F058FE2868816921F4406181612868D4
:102420008169A26841EA02218161D5E72868D4E97F
:10243000002C277B036A016A21F480710162C16963
:1024400023F4007321F0030141EA0C0121F0F00CA8
:1024500039074FF400774CEA116107EA02221A4368
:10246000C16102622868C16921F00C01C16128685C
:10247000C169A26811432BE02868D4E90021E7680C
:10248000036AD0F820C02CF4805CC0F820C0D0F8DB
:102490001CC023F400532CF4407C4CEA012121F4AD
:1024A000704C4FF6FF7101EA07314FF4005741EAD3
:1024B0000C0107EA02321A43C16102622868C1694D
:1024C00021F44061C1612868C169A26841EA022122
:1024D000C16181E710B5040003D094F83D0010B14C
:1024E00007E0012010BD002084F83C00204600F0E9
:1024F0001FF8022084F83D00211D206800F050FDE7
:10250000012084F8460084F83E0084F83F0084F8F7
:10251000400084F8410084F8420084F8430084F8C5
:10252000440084F8450084F83D00002010BD000000
:1025300000B585B0002100910191029103910068DE
:102540001649884228D11648816941F400618161A9
:10255000816901F400610491816941F04001816168
:102560008069694600F0400004904FF400700090CC
:102570000C48FEF797FF0C48416821F0C00141F07C
:10258000E06141F0C0014160002205211B20FFF7FE
:102590006BFB1B20FFF75AFB05B000BD002C014070
:1025A00000100240001801400000014030B5044610
:1025B000002551B104290DD0082910D094F84120EC
:1025C00094F84500012A11D10EE094F83E2094F8C9
:1025D0004200F7E794F83F2094F84300F2E794F8BC
:1025E000402094F84400EDE7012801D0012030BDDF
:1025F000022059B1042912D0082919D084F84100C9
:1026000084F845000C293ED001253AE084F83E00CC
:1026100084F842002068C26842F0020210E084F8A8
:102620003F0084F843002068C26842F0040207E0DB
:1026300084F8400084F844002068C26842F0080230
:10264000C2600122206800F0F9FC1149206888422C
:102650000ED0104988420BD0B0F1804F08D00E49FF
:10266000884205D00D49884202D00D49884204D1E4
:10267000816801F00701062903D0016841F00101DA
:102680000160284630BD2068C26842F01002D7E7DA
:10269000002C0140003401400004004000080040CC
:1026A000000C00402DE9F04104460068C668056949
:1026B0004FF00007A90713D5B10711D5F91E016125
:1026C00001202077206880698007204602D0FFF72C
:1026D0001DFE04E000F07EF8204600F07CF827772D
:1026E000680716D5700714D521686FF004000861DB
:1026F000022020772068806910F4407F204602D0B5
:10270000FFF704FE04E000F065F8204600F063F8EF
:102710002777280715D5300713D521686FF00800F3
:102720000861042020772068C0698007204602D015
:10273000FFF7ECFD04E000F04DF8204600F04BF808
:102740002777E80616D5F00614D521686FF010003B
:102750000861082020772068C06910F4407F204677
:1027600002D0FFF7D3FD04E000F034F8204600F07B
:1027700032F82777E80708D0F00706D021686FF015
:1027800001000861204600F027F8280608D5300629
:1027900006D521686FF0800008612046FFF712FD22
:1027A000680608D5700606D521686FF040000861FC
:1027B000204600F030F8A8060AD5B00608D52168F2
:1027C0006FF0200008612046BDE8F041FFF7FBBC38
:1027D000BDE8F0817047704700680349884201D125
:1027E000FFF7AAB97047000000140040024600201D
:1027F00041B1042909D008290AD00C2901D1106857
:10280000006C70471068406B70471068806B7047B1
:102810001068C06B7047704770B5114C4FF4007171
:102820002046FEF73BFF002818D10E490122150271
:10283000087029462046FEF736FF002200BF521CD2
:1028400092B2502AFAD3002229462046FEF72BFFE7
:1028500005480068C16841F00201C16070BD000018
:102860000018014000000020FC000020FEE7016885
:102870004A69D24352050FD46FF480624A61002145
:1028800040F8301F202242738173026942F0040233
:10289000026101730120704700207047F8B50446BB
:1028A000C06A1E460D461746082807D0012805D0E5
:1028B00010F5803F02D0206B122804D120680168F7
:1028C00041F480710160134600224FF0011120464F
:1028D000009600F05DF840B120680068C00502D5A0
:1028E0004FF4007020640320F8BD2069B0F5804FDC
:1028F0000ED00620216800EAD51040F0F0000861F3
:1029000033463A460B49204600F08AF878B902E08F
:1029100005F0FE0000E0E8B2216808610549334691
:102920003A46891F204600F07BF80028DCD00120C1
:10293000F8BD00000800010070B516460D460446BB
:102940001EE02046FFF793FF08B1012070BD681C10
:1029500016D0FEF7ADFE801BA84200D885B92068CE
:102960004069C04340070BD5002044F8300F2021B8
:102970006173A073216941F0200121612073E4E7B4
:1029800020684069C0434007DBD4002070BD0000D0
:102990002DE9F047984617460D460446C1F3074611
:1029A000DDF820902AE000BFB8F1FF3F26D0FEF707
:1029B0007FFEA0EB0901414502D8B8F1000F1DD1FF
:1029C0002068012E16D0806925EA00000004000C62
:1029D00012D00020B84211D1002044F8300F20213D
:1029E0006173A073216941F02001216120730120EE
:1029F000BDE8F0874069E7E70120EBE72068012E9A
:102A00000AD0806925EA00000004000C06D00020EE
:102A1000B842C9D00020EBE74069F3E70120F7E7AF
:102A20002DE9F047984616460D4604464FF000093A
:102A30004FF0200AC1F3074723E020684069C043F4
:102A4000400515D42068016841F4007101602168D7
:102A50006FF480604861C4F8309084F83DA084F839
:102A60003E90216C41F00401216484F83C9021E007
:102A7000701C06D0FEF71CFEA0EB0800B04203D885
:102A800016B1012F1FD021E02068012F15D08069D9
:102A900025EA00000004000C18D000BF44F8309F65
:102AA00084F80DA084F80E90216941F02001216185
:102AB00084F80C900120BDE8F087406925EA000009
:102AC0000004000CEAD12068406901E020688069B8
:102AD00025EA00000004000CAFD1ECE770B5164603
:102AE0000D4604461EE02046FFF7C1FE08B1012056
:102AF00070BD681C16D0FEF7DBFD801BA84200D815
:102B000085B920684069C04300060BD5002044F811
:102B1000300F20216173A073216941F020012161F0
:102B20002073E4E720684069C0430006DBD400203E
:102B300070BD000070B586B0002418480094019460
:102B400002940394816941F040018161816901F03F
:102B500040010491816941F004018161816901F0C2
:102B600004010491816941F00801816180690C4E82
:102B700000F008004FF4807504900022294630468A
:102B8000FEF791FD01200095CDE90104022003909C
:102B900069463046FEF786FC06B070BD0010024064
:102BA0000018014010B586B000241948059404941B
:102BB0000094019402941549039401600721C0E92F
:102BC00001144FF6FF71C0E9031444618461FFF7FB
:102BD00081FC08B172B6FEE7049404A90C48059480
:102BE000FFF7F2FA08B172B6FEE70120CDE9004026
:102BF00002940022694606480394FFF7D9FB002897
:102C000001D072B6FEE706B010BD0000002C0140F6
:102C1000FC000020FEE7FEE710B5002000F024F8DD
:102C2000BDE8104000F04AB970B5802813D24029A1
:102C300011D20B4B012401F007051E79AC40094B62
:102C4000C90800EBC1100EB132B101E0012A03D076
:102C5000195CA143195470BD195C2143FAE70000C7
:102C6000A0000020D010002028B1FF224FF4806186
:102C70000248FDF73BBC0022F8E70000D01000201E
:102C8000014A108051807047A000002010B500F06C
:102C9000F7FD44F62063012278215448FEF7D2FD67
:102CA00008B1002010BD40F6C210401EFDD1AE227A
:102CB0000021782000F0EAFD20220021782000F099
:102CC000E5FD10220021782000F0E0FDB022002177
:102CD000782000F0DBFDC8220021782000F0D6FD2E
:102CE00000221146782000F0D1FD1022002178202A
:102CF00000F0CCFD40220021782000F0C7FD8122A9
:102D00000021782000F0C2FDFF220021782000F091
:102D1000BDFDA1220021782000F0B8FDA6220021EF
:102D2000782000F0B3FDA8220021782000F0AEFD4D
:102D30003F220021782000F0A9FDA4220021782064
:102D400000F0A4FDD3220021782000F09FFD002296
:102D50001146782000F09AFDD5220021782000F05D
:102D600095FDF0220021782000F090FDD92200216D
:102D7000782000F08BFD22220021782000F086FDD3
:102D8000DA220021782000F081FD12220021782033
:102D900000F07CFDDB220021782000F077FD20226E
:102DA0000021782000F072FD8D220021782000F0B3
:102DB0006DFD14220021782000F068FDAF22002173
:102DC000782000F063FD2E220021782000F05EFDC7
:102DD0000020FFF749FF00F071F80548002101804D
:102DE000418001214171084610BD0000A80000206B
:102DF000A00000202DE9F047814625480D46924667
:102E000001882A781144802905D280464088697853
:102E10000844402802D30020BDE8F08700262AE0BD
:102E2000A9F1200101FB00606A68002432F81070EB
:102E30001DE000BF07FA04F0000409D5B8F802103D
:102E4000B8F800003144204489B280B252460BE009
:102E5000BAF1000F1AD00022B8F80210B8F800003A
:102E60003144204489B280B2FFF7DEFE641C28782A
:102E7000A042DFD8761C6878B042D1D8B8F80010EC
:102E80002A7848461144A8F80010C5E70122E3E774
:102E9000A000002070B515460E46044609E02A46FB
:102EA0003146FFF7A7FF2178884201D0C8B270BD34
:102EB000641C20780028F2D1C0B270BD70B5104DEE
:102EC000002400BF04F1B000C2B20021782000F05D
:102ED000DDFC00221146782000F0D8FC10220021F1
:102EE000782000F0D3FC05EBC41280234021782029
:102EF00000F0DCFC641CE4B2082CE3D370BD0000DD
:102F0000D010002010B5502080F31188BFF34F8FF0
:102F1000BFF36F8F01F024F918B104494FF08050CE
:102F20000860002080F3118810BD000004ED00E06F
:102F300010B590B028216846FDF7E0FA14210AA8E0
:102F4000FDF7DCFA022000900120049010200024FC
:102F5000059007946846FEF7A5FF08B172B6FEE734
:102F60000F20CDE90A044FF48060CDE90C40002128
:102F70000AA80E94FEF7AAFE002801D072B6FEE75A
:102F800010B010BD704700000148FFF78BBB000078
:102F9000FC0000200148FFF785BB000098030020DB
:102FA000F0B50268204C214D214E224F224B4FF0AC
:102FB000804CA04209D0984207D0604505D0A84275
:102FC00003D0B04201D0B84204D122F0700E4A685A
:102FD00042EA0E02A04209D0984207D0604505D0CF
:102FE000A84203D0B04201D0B84203D122F44075C8
:102FF000CA682A434D6922F080022A4302608A6827
:10300000C2620A688262A04201D0984201D1096975
:103010000163012141610169C90703D0016921F000
:1030200001010161F0BD0000002C014000040040DE
:1030300000080040000C00400034014010B501F0D1
:103040001F030121046A99408C430462016A9A407B
:103050001143016210BD000070B5056A046A24F0D6
:10306000010404628469124EB0420ED0114EB04287
:103070000BD0B0F1804F08D00F4EB04205D00F4EAC
:10308000B04202D00E4EB04203D124F003041443E8
:1030900001E044F001041A0724F0F00444EA12624B
:1030A00025F00A0301F00A0119438261016270BD33
:1030B000002C0140003401400004004000080040A2
:1030C000000C004030B5046A056A25F01005056261
:1030D000856925F4407545EA022222F470454FF6D1
:1030E000FF7202EA033224F0A0032A43A02404EA78
:1030F000011119438261016230BDFEE7490050EAC7
:10310000C12018BF04204A0D18BF40F0010040F252
:10311000FF72B2EB515F08BF40F00200012808BF08
:10312000052070470907090E002804DB00F1E020A4
:1031300080F80014704700F00F0000F1E02080F8E4
:10314000141D704730380A2801D201207047002032
:103150007047000088B0124C6069E0B1002202A9FB
:1031600000F0C2FE012816D1FFF756FD029801F0CB
:103170004DFBCDE900010BA2102103A8FDF79EF83D
:103180001E210720FFF77CFD01220B4903A8FFF752
:1031900081FEFFF793FE322000F084FCDCE70000A4
:1031A0000000002044697374616E63653A20252E27
:1031B000316620636D000000900000208EB0FEF7A5
:1031C000C3FCFFF7B5FEFFF7B5FC2A4828494FF4CA
:1031D000804201602849416000218160C0E90312FA
:1031E00041618161C1610162FEF768FA08B172B69E
:1031F000FEE7FFF7D7FCFFF749FD1E4800215430DA
:10320000FFF7D4F900210846FFF73AFD01221B49D8
:103210001BA0FFF73FFE1E210020FFF731FD01221A
:10322000164918A0FFF736FEFFF748FE41F2883036
:10323000FEF726F9002204210A2000F03FFD134981
:103240001C22486112496846FDF71EF910491C22EC
:103250001C3107A8FDF718F90021684600F025F891
:10326000002107A800F021F800F01AF8FEE700009E
:1032700000540040A8000020801A0600980000209A
:1032800048690000557365720000000000000020CE
:10329000FC48000801460020842900D0C81C704763
:1032A00010B500F04BFC002010BD7FB50D46044664
:1032B0004169B0F9080081B1A16971B1FFF7EAFF76
:1032C000D4E905128DE80700D4E900102B462269E5
:1032D00000F00DFF039004B070BDFFF7DBFF03A902
:1032E000CDE90001208A2B4682B2D4E9001000F01B
:1032F000D1FE012801D00020EDE70398EBE70000A4
:103300002DE9F041184C0F460546E6682068001D7F
:1033100000F000FB38B9206890F82C10012088409C
:10332000216981432161681C07D137B12168BDE85B
:10333000F0410E48091D00F031BB20683544B5420C
:103340004560216805D2A06BBDE8F041091D00F081
:103350000DBB606B091D00F009FBA06A854200D21D
:10336000A562BDE8F081000028000020BC04002018
:103370002DE9F041054600F01DFB2E4CA068401CD5
:10338000A06020682C4F10B1606940B32DE025602B
:10339000A068012829D1002606EB860007EB8000F3
:1033A00000F0D6FA761C072EF6D323488C3000F0B6
:1033B000CFFA2148A03000F0CBFA1F48B43000F01B
:1033C000C7FA1D48C83000F0C3FA1B48DC3000F0D3
:1033D000BFFA19488C3060631430A06305E02068A0
:1033E000E96AC06A884200D82560606A401C606251
:1033F000E96A0120226988401043206101EB8100C5
:1034000007EB8000291D00F0C9FA00F0F3FA6069AB
:1034100000280CD02068E96AC06A884207D20749B0
:103420004FF080500860BFF34F8FBFF36F8FBDE840
:10343000F081000028000020E003002004ED00E0FF
:1034400030B4026C0B46002A0BD0C1681144C16035
:103450008468A14201D30168C16030BC1846FCF702
:10346000CEBF30BC70472DE9F041856B174604464E
:103470000026026C82B1C7B1E068FCF7C0FFE168CA
:10348000206C091AE1602268914202D2A168081AF0
:10349000E060022F16D017E02068A8B9A06800F0FD
:1034A000C5FE06460020A0600EE06068FCF7A7FF9E
:1034B000216C606808446060A168884204D3206879
:1034C000606001E005B16D1E6D1CA5633046BDE86E
:1034D000F08110B5044690F8510058B101280CD085
:1034E00002280FD0502080F31188BFF34F8FBFF315
:1034F0006F8FFEE7206B00F091FA2046BDE8104088
:1035000000F08CBA10BD000010484FF44061420733
:1035100006D0C01D0D4920F00700411AC1F54061D9
:103520000B4A00230144C2E900030839183A21F08C
:10353000070111604B600B600B1AC0E90013936028
:103540004FF000405360506170470000D0040020ED
:103550007C000020144E154CA6F1C8074FF080588F
:10356000DFF84C9012E000BF00F024FAF068C56864
:10357000281D00F0CFF9A068401EA0606068401EC2
:10358000606000F037FA2846FFF7A3FF6068002864
:10359000EAD138680128F9D9C9F80080BFF34F8F04
:1035A000BFF36F8FF2E70000A8040020280000207E
:1035B00004ED00E00346009829B10260C0E90F3134
:1035C000012100F09DBB0060F8E72DE9F0479A4625
:1035D000DDE9098481466FF00303206B03EB82026F
:1035E0001044089E20F00707780707D0502080F38A
:1035F0001188BFF34F8FBFF36F8FFEE7002561B1D6
:10360000002023180A5C83F834200A5C12B1401CA5
:103610001028F6D384F8435001E084F83450072E84
:1036200000D30626E662C4E91165201D00F09BF96F
:1036300004F1180000F097F92461C6F107006462F4
:10364000A061E56484F8505052464946384600F07F
:1036500005F92060B8F1000F01D0C8F80040BDE8BE
:10366000F087000030B5114900E011460A68824237
:10367000FBD34B685C18844203D14068184448600F
:10368000084643681C18944209D1084C183C246829
:10369000A24209D052681A4442600A681268026065
:1036A000814200D0086030BD0460F9E77C00002052
:1036B00010B5044600F07EF9A06B28B15FF000045D
:1036C00000F098F9204610BD0124F9E70648416B47
:1036D000096829B1416BC968C96849688162704746
:1036E0004FF0FF31FAE7000028000020084840684A
:1036F000401C4FF0500080F3118804D0BFF34F8F6F
:10370000BFF36F8FFEE7BFF34F8FBFF36F8FFEE7FF
:10371000840000202DE9F041044600F04BF994F9B3
:10372000455004F1240609E0606A48B1304600F0D3
:10373000C9FD08B100F0E4F96D1E6DB2002DF3DC97
:103740004FF0FF3684F8456000F054F900F032F98C
:1037500094F9445004F1100709E0206948B1384653
:1037600000F0B0FD08B100F0CBF96D1E6DB2002D78
:10377000F3DC84F84460BDE8F04100F03BB90000A0
:103780002DE9F0410546002700F00EFA324E306870
:1037900008B9FFF7B9FE706905424ED1C5B30835C7
:1037A00068070ED005F00700C0F10800054468075F
:1037B00007D0502080F31188BFF34F8FBFF36F8F76
:1037C000FEE72DB37068854237D82348183001468C
:1037D0000C6801E020460C466168A94202D22168CB
:1037E0000029F7D131688C4227D007682168016031
:1037F00060680837411B10290FD96019420708D0AB
:10380000502080F31188BFF34F8FBFF36F8FFEE717
:1038100013E041606560FFF725FF61687068401A3A
:103820007060B268904200D2B060706901430020BD
:10383000C4E90001F068401CF06000F07DFD7807ED
:1038400007D0502080F31188BFF34F8FBFF36F8FE5
:10385000FEE73846BDE8F0816400002010B5031F84
:103860004FF080741C601B1F21F001011960191FAB
:10387000024B0B60143940380A6010BDED36000869
:103880000148401EFDD1704790D003001CB50223B3
:103890008DF804100A2100918DF80520014601AA37
:1038A0000148FEF785F81CBDA800002070B5C2B025
:1038B00000248DF8041001A904E0155D0E19641CA4
:1038C0007570E4B29C42F8D30A2100915B1C01465A
:1038D0009BB201AA0248FEF76BF842B070BD00002F
:1038E000A800002008B50A4CFEF796FF3C2000F027
:1038F000D9F82069009010F0FF4F05D000231A4638
:103900006946606900F040FA642000F0CBF8EBE70C
:1039100000000020D0E9013201699A60D0E901235A
:103920005A604A68824201D182684A60002202617C
:103930000868401E0860086870470000034B036079
:1039400003F154000860802010607047440100209B
:1039500000F108014FF0FF32C0E90112C1600161BE
:1039600000210160704700210161704730B50B688C
:103970005A1C02D000F1080202E0026904E022466B
:10398000546825689D42FAD953684B6099608A60F3
:10399000516008610168491C016030BD42684A609D
:1039A00093688B6093685960916008610168491C55
:1039B00001607047502080F31188BFF34F8FBFF331
:1039C0006F8F0A494868401C486001280CD108489C
:1039D000006810F0FF0F07D0502080F31188BFF36C
:1039E0004F8FBFF36F8FFEE7704700008400002009
:1039F00004ED00E00849486828B1401E486001D144
:103A000080F311887047502080F31188BFF34F8FE7
:103A1000BFF36F8FFEE700008400002070B5002820
:103A20002AD0164DA0F1080460686969084207D1E0
:103A3000502080F31188BFF34F8FBFF36F8FFEE7E5
:103A400022683AB1502080F31188BFF34F8FBFF343
:103A50006F8FFEE78843606000F0A6F860686968D1
:103A6000084468602046FFF7FDFD2869401C286176
:103A7000BDE8704000F060BC70BD00006400002034
:103A80004FF0E02000210161816105494FF47A7215
:103A90000968B1FBF2F1491E4161072101617047DC
:103AA0002400002010B5020014D00F48006B38B17C
:103AB000502080F31188BFF34F8FBFF36F8FFEE765
:103AC00000F072F800211046FFF71AFC00F034FCF9
:103AD000002807D105494FF080500860BFF34F8F91
:103AE000BFF36F8F10BD00002800002004ED00E040
:103AF00002490A6A0260C9684160704728000020D4
:103B000001490120C86170472800002010B50C460B
:103B100050B1094909681831FFF728FF2046BDE870
:103B200010400121FFF7ECBB502080F31188BFF358
:103B30004F8FBFF36F8FFEE72800002010B586B0CF
:103B40000024039405AA04A903A80494FFF7F6FE31
:103B5000DDE903010094CDE9011000230EA1104816
:103B6000059A00F0C4FA0F490028C86211D050200D
:103B700080F31188BFF34F8FBFF36F8F4FF0FF308B
:103B8000886201204861CC6006B0BDE8104000F0BA
:103B900041B806B010BD000049444C45000000008B
:103BA00055350008280000200248016B491C0163BC
:103BB00070470000280000201448016B11B101215A
:103BC000C16170470021C1610169B1FA81F1C1F1A0
:103BD0001F0101EB81020E4951F822306BB101EB5C
:103BE000820101F108034A6852684A609A4201D191
:103BF00052684A60D16801607047502080F3118894
:103C0000BFF34F8FBFF36F8FFEE700002800002047
:103C1000E00300201CB5264908780190FF200870B9
:103C200008788DF800009DF800009DF8002000F055
:103C3000F000904207D0502080F31188BFF34F8FDF
:103C4000BFF36F8FFEE79DF800001A4C00F05000A4
:103C500020700720A06005E09DF8002052008DF83C
:103C60000020401E9DF800201206F5D4A060032815
:103C700007D0502080F31188BFF34F8FBFF36F8FB1
:103C8000FEE74FF44070A060019808700A48016890
:103C900041F470010160016841F070410160FFF77B
:103CA000EFFE00206060FCF7AFFA00201CBD0000B2
:103CB00000E400E08400002020ED00E0F8B51746A5
:103CC0000E46050013D005FB06F04830FFF758FDFF
:103CD00004000AD0002084F8460004F148023B4664
:103CE000314628460094FFF765FC2046F8BD502079
:103CF00080F31188BFF34F8FBFF36F8FFEE7000093
:103D000070B50D46040025D0FFF754FED4E90F200E
:103D1000216802FB0011A1600021A163216861609C
:103D20000A46D4E90F01401E00FB0121E160214653
:103D30004FF0FF3001F8440F487004F110008DB1CE
:103D4000FFF706FE04F12400FFF702FEFFF752FE24
:103D5000012070BD502080F31188BFF34F8FBFF357
:103D60006F8FFEE721690029F0D000F0ABFA002840
:103D7000ECD004494FF080500860BFF34F8FBFF381
:103D80006F8FE3E704ED00E02DE9FF4782B01D46A9
:103D90008A464FF00008040003D0BAF1000F08D0A3
:103DA00011E0502080F31188BFF34F8FBFF36F8F66
:103DB000FEE7206C38B1502080F31188BFF34F8F9D
:103DC000BFF36F8FFEE7022D0AD1E06B012807D009
:103DD000502080F31188BFF34F8FBFF36F8FFEE742
:103DE00000F0B0F93F4F4FF000094FF0805648B94E
:103DF000049838B1502080F31188BFF34F8FBFF380
:103E00006F8FFEE7FFF7D6FDA06BE16B884207D30B
:103E1000022D05D00498D0B1B8F1000F1AD01EE0E1
:103E20002A4651462046FFF71EFB616A19B104F18C
:103E3000240000F047FA20B13E60BFF34F8FBFF37C
:103E40006F8FFFF7D7FD012006B0BDE8F087FFF7C1
:103E5000D1FD22E06846FFF74BFE4FF00108FFF767
:103E6000C9FDFFF7A1FEFFF7A5FD94F94400401C32
:103E700001D184F8449094F94500401C01D184F8A4
:103E80004590FFF7B7FD04A9684600F0C9F830B1C6
:103E90002046FFF73FFC00F04FFA0020D4E7FFF781
:103EA00089FDA06BE16B884213D1FFF7A3FD04F1FC
:103EB00010000499FFF72AFE2046FFF72BFC00F0C4
:103EC0003BFA00289ED13E60BFF34F8FBFF36F8F48
:103ED00098E7FFF78FFD2046FFF71CFC00F02CFA57
:103EE00090E7000004ED00E02DE9F747002683B0DD
:103EF0008A46040003D0BAF1000F08D011E0502028
:103F000080F31188BFF34F8FBFF36F8FFEE7206CF4
:103F100038B1502080F31188BFF34F8FBFF36F8FFC
:103F2000FEE700F00FF9DFF8F4804FF000094FF0E2
:103F3000805748B9059838B1502080F31188BFF3F5
:103F40004F8FBFF36F8FFEE7FFF734FDA56BC5B151
:103F500051462046FFF774FA6D1EA563206950B1E3
:103F600004F1100000F0AEF928B1C8F80070BFF3FA
:103F70004F8FBFF36F8FFFF73DFD012006B0BDE807
:103F8000F087059808B11EB106E0FFF733FD27E082
:103F90006846FFF7ADFD0126FFF72CFDFFF704FE95
:103FA000FFF708FD94F94400401C01D184F84490C7
:103FB00094F94500401C01D184F84590FFF71AFDA3
:103FC00005A9684600F02CF8002820460AD0FFF723
:103FD000A1FB00F0B1F92046FFF76AFB0028B3D03F
:103FE0000020CBE7FFF764FB90B104F124000599B2
:103FF000FFF78CFD2046FFF78DFB00F09DF90028B0
:10400000A2D1C8F80070BFF34F8FBFF36F8F9BE74B
:104010002046FFF77FFB00F08FF995E704ED00E005
:104020002DE9F0410C46050011D0C4B1FFF7C2FCE8
:10403000174BDA686E682068911B471C17D02F68F1
:104040001B6A9F4219D0964217D8012410E05020D5
:1040500080F31188BFF34F8FBFF36F8FFEE75020BF
:1040600080F31188BFF34F8FBFF36F8FFEE70024FB
:10407000FFF7C0FC2046BDE8F081884205D9401A10
:1040800020602846FFF734FDF1E700202060DCE7E0
:10409000280000202DE9FF5F8346DDE90E87994661
:1040A00016468A469000FFF76BFB05001CD0542093
:1040B000FFF766FB040014D00020256384F851004C
:1040C000CDE90240CDE900874B463246514658467D
:1040D000FFF77BFA2046FFF74BF9012004B0BDE85B
:1040E000F09F2846FFF79AFC4FF0FF30F6E7F0B557
:1040F00085B0DDE90B640A9DA6B1DCB154270097B9
:104100002663022684F85160002604AFCDE90246FA
:10411000CDE90057FFF759FA2046FFF729F904982F
:1041200005B0F0BD502080F31188BFF34F8FBFF36F
:104130006F8FFEE7502080F31188BFF34F8FBFF3DE
:104140006F8FFEE70548416919B1006B18B1002077
:1041500070470120704702207047000028000020AF
:104160002DE9F0412F4C0026206B28B1A069401C9E
:10417000A0613046BDE8F081E5686D1CE56013D1B3
:10418000606B006838B1502080F31188BFF34F8F07
:10419000BFF36F8FFEE7606BA16B6163A063206A62
:1041A000401C2062FFF792FAA06ADFF87C8085420B
:1041B00009D3606B0068A0B1606BC068C76878689D
:1041C000854211D2A0622068C06A00EB800158F8D5
:1041D0002100012800D90126E0690028C9D0012664
:1041E000C7E74FF0FF30EDE7381DFFF793FBB86AE4
:1041F00018B107F11800FFF78DFBF96A0120226959
:1042000088401043206101EB810108EB8100391DDA
:10421000FFF7C4FBF86A2168C96A8842C9D301263E
:10422000C7E7000028000020E003002070B504006C
:104230004FF0000140D0214D2868844207D0502023
:1042400080F31188BFF34F8FBFF36F8FFEE7A06C31
:1042500038B1401EA064636CE26A9A422CD040B12F
:104260002AE0502080F31188BFF34F8FBFF36F8F88
:10427000FEE7201DFFF74EFB114A012150B9E06A0D
:1042800000EB800352F8233023B92B6901FA00F0C8
:1042900083432B61606CE062C0F10700A061E06ABB
:1042A0002B6981401943296100EB800002EB8000FB
:1042B000211DFFF773FB0121084670BD2800002077
:1042C000E00300202DE9F041C068C468ACB104F1FE
:1042D00018000746FFF71EFB154D286B0126A0B1FD
:1042E00039461448FFF75AFBE06A2968C96A8842D0
:1042F0001CD90120EE61BDE8F081502080F31188C7
:10430000BFF34F8FBFF36F8FFEE7201DFFF702FB58
:10431000E16A2A6906FA01F01043286101EB810085
:104320000449B43901EB8000211DDBE70020E2E7FE
:1043300028000020940400202DE9F0472C4D002493
:104340002746286B38B1FFF735FB286B401E2863E2
:10435000286B40B146E0502080F31188BFF34F8FA7
:10436000BFF36F8FFEE7A968224E0120D1B3A6F1FB
:10437000B40980463068E8B1F068C46804F11800F8
:10438000FFF7C8FA201DFFF7C5FAE06A2A6908FAA4
:1043900000F11143296100EB800109EB8100211D2F
:1043A000FFF7FCFAE06A2968C96A8842E2D3C5F8D7
:1043B0001C80DFE70CB1FFF789F9AC6944B14646D0
:1043C000FFF7CEFE00B1EE61641EF9D10020A861B6
:1043D000E86938B10849012738070860BFF34F8FF3
:1043E000BFF36F8FFFF706FB3846BDE8F08700008C
:1043F000280000209404002004ED00E010B50029FE
:104400000AD00878002807D005487844FCF726FC35
:10441000002801D0002010BD0248784410BD0000E3
:10442000EA1A0000E21A000021F00042A2F16052F4
:10443000B2F5801F01F0004328BFD2F17F6C0BD989
:104440005FEA001C43EAC20242EB507018BF70479B
:1044500028BF20F001007047B2F5801FBCBF18468E
:1044600070474FEA410C1CF5001F02D2084600F0CD
:104470003EBA70B500F075F900000089FFF7F6BF8D
:104480004FF00040A0F58000704700002DE9C041CA
:1044900030B4DFF8A0C23CEA111418BF3CEA131490
:1044A00000F0EC8081EA03051CEA111444EAD5749B
:1044B00018BF1CEA131500F0C780A4EB05044FF0E9
:1044C000004545EAC12145EAC32341EA505143EA88
:1044D000525304F17F74994204F500344FEAC0202E
:1044E0004FEAC22208BF904200F09C804FEA136559
:1044F0000FF24016765D4FEA134506FB05F7C7F14C
:10450000807706FB07F74FEAD737A7FB03687642A9
:10451000C8F58038A7FB06CE38BFA8F1010807FB15
:1045200008E64FF0000EA6FB028CE6FB03CEDCF1A2
:10453000000CCEF1004E38BFAEF1010EA6FB0C58B8
:104540004FF000074FF00005E6FB0E87A1FB08C601
:10455000A0FB07CE16EB0E0645F10005E1FB076553
:1045600015F1E04E7EBFA4F580345FEA46066D414A
:1045700016F1800745F100054FEA17274FEA066656
:1045800047EA0567A6F1DE46B6F1805F4FEA1525DA
:104590001FD9384624F0010C05EBC471BCF1FE6F45
:1045A00001EB0C1102D8F0BCBDE8008124425CBFD5
:1045B00001F5801E9EEAC47F02D4F0BCBDE80081F4
:1045C000244238D4F0BCA1F1C041BDE8004100F064
:1045D00016B94FEAD22242EA43524FEAD323A7FB4D
:1045E00002864FEAD02040EA415007FB03661EEAEC
:1045F0000E0F4FEAD12105FB026658BFA6EB00560D
:10460000B6EB00564FEA520E4EEAC37E18EB0E0E82
:1046100056EB530EBDD518EB02085E417F1C55F1D9
:104620000005B6E74FF480154FF000074FF0000685
:104630004FF00008ADE7F0BC4FF0000001F1C041C1
:1046400001F00041BDE8008111EA0C1F0CEA1315CE
:1046500000D00CE013EA0C1F00F025804FF00000A2
:10466000F0BC81EA030101F00041BDE80081F0BC2B
:10467000BDE8004181EA030100F0C1B8F0BCBDE82B
:10468000004170B500F06DF8097EFC3E00F007B8FF
:1046900081EA03014FF0000001F00041704781EA18
:1046A000030100F0ACB8F0BCBDE800414FF00000E1
:1046B00021497047FFFDFBF9F7F5F4F2F0EEEDEB61
:1046C000E9E8E6E4E3E1E0DEDDDBDAD8D7D5D4D310
:1046D000D1D0CFCDCCCBCAC8C7C6C5C4C2C1C0BF5C
:1046E000BEBDBCBBBAB9B8B7B6B5B4B3B2B1B0AF62
:1046F000AEADACABAAA9A8A8A7A6A5A4A3A3A2A146
:10470000A09F9F9E9D9C9C9B9A9999989797969500
:1047100095949393929191908F8F8E8E8D8C8C8B9C
:104720008B8A898988888787868585848483838224
:10473000828181800000FF070000F87FB0FA80F3DB
:1047400010FA03F10AD0C3F11D0303F580634FEAA9
:1047500041504FEA035202EBD12170474FF0000065
:1047600070470EF1020E2EF0030E5EF8046B364217
:1047700005D4012A43EB030515F5001F12D80128C3
:1047800041EB010C1CF5001F0CD80ED14FEAD17C77
:1047900015F5001F0CEB4C0C0CF1020C08BF4CEB98
:1047A000D37C04E04FF0080C01E04FEAD37C0CEB23
:1047B0004C0526FA05F606F00706B6F1040C06D2FB
:1047C0000EEB860CBDE870404CF0010C6047DFE852
:1047D0000CF0090B02024FF000414FF00000A1F570
:1047E000002170BD19461046012851EB010418BF85
:1047F000D4F5001484BF002001F0004170BD08080A
:10480000A0F500114FEA31017047000043004FEA64
:10481000D30C4FEA3C0C43401FBF40070CF16051E2
:1048200013F0FE4F70471CF0006F03D100200CF016
:10483000004170470CF0004343EA507010B540EA65
:10484000CC0000F00EF800BF000000924FEA00011B
:10485000FFF7D5BF4FF000414FF00000A1F5002158
:1048600070470EF1020E2EF0030E5EF8044B244248
:1048700004D44FEA4102B2F17F4F11D84FEA40030E
:10488000B3F17F4F0CD80ED14FEAD07CB2F17F4FFD
:104890000CEB4C0C0CF1020C08BF4CEBD17C04E08F
:1048A0004FF0080C01E04FEAD17C0CEB4C0324FAEA
:1048B00003F404F00704B4F1040C06D20EEB840CEC
:1048C000BDE810404CF0010C6047DFE80CF0070831
:1048D00002024FF00040A0F5800010BD08464200E3
:1048E00018BFD2F1807288BF00F0004010BDFF21D8
:1048F00041EAD050C0057047FBF703BFBC5E00081B
:10490000E538000800000000000000008000000002
:104910000000000000000000CC5E000855310008D7
:104920000000000000000000800000000000000007
:1049300000000000010202030405060708090A0B33
:104940000C0D0E0F1010000000000000000001020E
:104950000304060708090000000001020304000028
:104960000000000000000000000000000000000047
:1049700000000010001000100010001000100000D7
:10498000001000000000002800280028000000009F
:104990000000000000000000000000240024007C53
:1049A00000240048007C0048004800000000003857
:1049B0000054005000380014005400540038001017
:1049C000000000200054005800300028005400145B
:1049D000000800000000001000280028001000342B
:1049E00000480048003400000000001000100010D3
:1049F00000000000000000000000000000000008AF
:104A000000100020002000200020002000200010C6
:104A10000008002000100008000800080008000836
:104A200000080010002000100038001000280000CE
:104A30000000000000000000000000000000001066
:104A40000010007C001000100000000000000000BA
:104A50000000000000000000000000000010001036
:104A600000100000000000000000000000380000FE
:104A70000000000000000000000000000000000036
:104A800000000000001000000000000800080010F6
:104A9000001000100010002000200000000000386E
:104AA0000044004400540044004400440038000026
:104AB0000000001000300050001000100010001026
:104AC000001000000000003800440044000400080A
:104AD00000100020007C00000000003800440004AA
:104AE0000018000400040044003800000000000822
:104AF0000018002800280048007C0008000800007A
:104B00000000007C004000400078000400040044E5
:104B100000380000000000380044004000780044E5
:104B200000440044003800000000007C000400083D
:104B300000100010002000200020000000000038BD
:104B400000440044003800440044004400380000A1
:104B500000000038004400440044003C00040044CD
:104B600000380000000000000000001000000000FD
:104B70000000000000100000000000000000000025
:104B800000100000000000000010001000100000E5
:104B90000000000C003000400030000C000000005D
:104BA0000000000000000000007C0000007C00000D
:104BB0000000000000000000000000600018000479
:104BC00000180060000000000000003800440004ED
:104BD0000008001000100000001000000000003865
:104BE0000044004C0054005C0040004000380000CD
:104BF000000000100028002800280028007C004445
:104C000000440000000000780044004400780044A4
:104C100000440044007800000000003800440040D8
:104C200000400040004000440038000000000070D8
:104C30000048004400440044004400480070000064
:104C40000000007C00400040007C0040004000402C
:104C5000007C00000000007C004000400078004024
:104C600000400040004000000000003800440040C8
:104C70000040005C00440044003800000000004494
:104C800000440044007C0044004400440044000010
:104C9000000000380010001000100010001000107C
:104CA00000380000000000040004000400040004B8
:104CB0000004004400380000000000440048005098
:104CC0000060005000480048004400000000004020
:104CD000004000400040004000400040007C0000D8
:104CE00000000044006C006C005400440044004488
:104CF00000440000000000440064006400540054BC
:104D0000004C004C00440000000000380044004407
:104D100000440044004400440038000000000078D3
:104D2000004400440044007800400040004000007F
:104D30000000003800440044004400440044005493
:104D4000003800040000007800440044004400786B
:104D500000480048004400000000003800440040C3
:104D60000030000800040044003800000000007C0F
:104D700000100010001000100010001000100000C3
:104D80000000004400440044004400440044004447
:104D900000380000000000440044004400280028BF
:104DA00000280010001000000000004400440054DF
:104DB00000540054006C002800280000000000444B
:104DC00000280028001000100028002800440000DF
:104DD00000000044004400280028001000100010CB
:104DE000001000000000007C00040008001000100B
:104DF00000200040007C000000000018001000109F
:104E0000001000100010001000100010001800200A
:104E10000020001000100010001000080008000022
:104E200000000030001000100010001000100010F2
:104E3000001000100030001000280028004400007E
:104E40000000000000000000000000000000000062
:104E500000000000000000000000000000FE002034
:104E60000010000000000000000000000000000032
:104E700000000000000000380044003C0044004CEA
:104E8000003400000000004000400058006400446E
:104E900000440064005800000000000000000038DA
:104EA00000440040004000440038000000000004BE
:104EB00000040034004C00440044004C0034000066
:104EC00000000000000000380044007C0040004466
:104ED000003800000000000C0010007C00100010E2
:104EE000001000100010000000000000000000345E
:104EF000004C00440044004C0034000400780040A2
:104F00000040005800640044004400440044000095
:104F100000000010000000700010001000100010D1
:104F200000100000000000100000007000100010D1
:104F3000001000100010001000E000400040004889
:104F40000050006000500048004400000000007065
:104F500000100010001000100010001000100000E1
:104F60000000000000000078005400540054005479
:104F700000540000000000000000005800640044DD
:104F8000004400440044000000000000000000381D
:104F900000440044004400440038000000000000C9
:104FA00000000058006400440044006400580040C1
:104FB0000040000000000034004C00440044004C5D
:104FC00000340004000400000000005800640040A9
:104FD00000400040004000000000000000000038D9
:104FE00000440030000800440038000000000020A9
:104FF0000020007800200020002000200018000081
:105000000000000000000044004400440044004C44
:1050100000340000000000000000004400440028AC
:1050200000280028001000000000000000000054CC
:1050300000540054006C002800280000000000000C
:105040000000004400280010001000280044000068
:105050000000000000000044004400280028001068
:1050600000100010006000000000007C000800102C
:1050700000200040007C000000000018001000101C
:105080000010002000200010001000100018001078
:105090000010001000100010001000100010001090
:1050A0000010003000100010001000080008001070
:1050B0000010001000300000000000000074004CE0
:1050C00000000000000000000000000000000000E0
:1050D00000000000000000000000000000000000D0
:1050E00000000000000000000000000000000000C0
:1050F000000C000C000C000C000C000C000C000C50
:10510000000C000C000C0000000C000C0000000063
:1051100000000000001B001B001B001B001B000008
:10512000000000000000000000000000000000007F
:10513000000000000000000080198019801980190B
:10514000C07FC07F80190033C07FC07F0033003331
:10515000003300330000000000000000001E003F8C
:10516000807580650074003C001E00078005806526
:1051700080658075003F001E0004000400000000F0
:10518000007000D840D8C0D880D900730006000C49
:10519000801BC036C066C046C00680030000000009
:1051A00000000000001E003F003300330033001EEB
:1051B000000CC03CC066806380618063C03E801C80
:1051C0000000000000000000000C000C000C000CAF
:1051D000000C0000000000000000000000000000C3
:1051E000000000000000000000008000000100033B
:1051F000000600060004000C000C000C000C000C63
:10520000000C0004000600060003000180000020DE
:1052100000100018000C000C000400060006000638
:105220000006000600060004000C000C0018001028
:1052300000200000000C002D003F001E0033000085
:10524000000000000000000000000000000000005E
:10525000000000000000000000000000000C000C36
:10526000000C000CC0FFC0FF000C000C000C000C78
:10527000000000000000000000000000000000002E
:10528000000000000000000000000000000000001E
:1052900000000000000C000C0004000400080000E6
:1052A00000000000000000000000000000000000FE
:1052B000001E001E000000000000000000000000B2
:1052C00000000000000000000000000000000000DE
:1052D000000000000000000000000000000C000CB6
:1052E00000000000000000000003000300030006AF
:1052F000000600060006000C000C000C000C001854
:10530000001800180000000000000000001E003F10
:105310000033806180618061806D806D806180611B
:1053200080610033003F001E00000000000000000C
:105330000006000E001E00360026000600060006CD
:105340000006000600060006000600060000000039
:1053500000000000001E003F8073806180618001BA
:1053600000030006000C001800300060807F807F82
:105370000000000000000000001C003E006300630D
:105380000003000E000E0003800180018061807325
:10539000003F001E00000000000000000006000E9C
:1053A000000E001E001E0016003600360066807FCC
:1053B000807F0006000600060000000000000000DC
:1053C000007F007F006000600060006E007F8063EF
:1053D0008001800180618073003F001E000000009A
:1053E00000000000001E003F803380610060006EFE
:1053F000007F80738061806180618033003F001E88
:105400000000000000000000807F807F800100031A
:10541000000300060006000C000C000C0008001839
:10542000001800180000000000000000001E003FEF
:105430008063806180610021001E003F8061806187
:1054400080618061003F001E00000000000000003D
:10545000001E003F00738061806180618073803F27
:10546000801D800180610073003F001E000000006D
:10547000000000000000000000000000000C000C14
:10548000000000000000000000000000000C000C04
:10549000000000000000000000000000000000000C
:1054A0000000000C000C00000000000000000000E4
:1054B000000C000C000400040008000000000000C4
:1054C000000080008003000E003800600038000EED
:1054D00080038000000000000000000000000000C9
:1054E0000000000000000000807F807F00000000BE
:1054F000807F807F000000000000000000000000AE
:105500000000000000000000000000400070001CCF
:10551000000780010007001C007000400000000030
:105520000000000000000000001F803FC071C0604C
:10553000C000C00180030007000E000C000C00003A
:10554000000C000C0000000000000000001E003FE6
:10555000803180718063806F806D806D806F806727
:1055600000600032003E001C00000000000000004F
:10557000000E000E001B001B001B001B8031803141
:10558000803F803F8031C060C060C060000000008C
:1055900000000000007C007E006300630063006385
:1055A000007E007E0063806180618063007F007EFA
:1055B0000000000000000000001E003F80318061FC
:1055C0000060006000600060006000608061803109
:1055D000003F001E0000000000000000007C007F73
:1055E000006380638061806180618061806180612F
:1055F00000630063007E007C0000000000000000EB
:10560000807F807F0060006000600060007F007F1E
:105610000060006000600060807F807F000000000C
:1056200000000000807F807F0060006000600060FC
:10563000007F007F0060006000600060006000602C
:105640000000000000000000001E003F803180616B
:1056500000600060006080638063806180618031F1
:10566000803F001E0000000000000000806180619B
:105670008061806180618061807F807F80618061E6
:105680008061806180618061000000000000000096
:10569000003F003F000C000C000C000C000C000C44
:1056A000000C000C000C000C003F003F000000004C
:1056B00000000000800180018001800180018001E4
:1056C000800180018001806180618073003F001E45
:1056D0000000000000000000C06080610063006600
:1056E0000066006C0078007C0066006600638061E4
:1056F0008061C060000000000000000000600060E9
:105700000060006000600060006000600060006099
:1057100000600060807F807F0000000000000000CB
:10572000C071C071C07BC07AC06AC06AC06EC064FC
:10573000C060C060C060C060C060C06000000000A9
:105740000000000080718071807980798079806D9F
:10575000806D806D8065806780678067806380630F
:105760000000000000000000001E003F00338061C8
:1057700080618061806180618061806180610033CF
:10578000003F001E0000000000000000007E007FBF
:1057900080638061806180618063007F007E006043
:1057A0000060006000600060000000000000000079
:1057B000001E003F003380618061806180618061F4
:1057C0008061806580670033803F401E00000000DC
:1057D00000000000007E007F806380618061806344
:1057E000007F007E00660063006380618061C060AE
:1057F0000000000000000000000E001F803180311A
:1058000000300038001E0007800380618061803115
:10581000003F001E0000000000000000C0FFC0FFAD
:10582000000C000C000C000C000C000C000C000C18
:10583000000C000C000C000C000000000000000038
:105840008061806180618061806180618061806150
:105850008061806180618073003F001E0000000055
:1058600000000000C060C060C060803180318031C5
:10587000001B001B001B001B000E000E000E00048E
:105880000000000000000000C0C0C0C0C0C0C0C018
:10589000C0C0C0CC804C804C805E805280528073EF
:1058A000806180610000000000000000C0C08060D6
:1058B00080610033003B001E000C000C001E001F26
:1058C000003B80718061C0C000000000000000004B
:1058D000C0C08061806100330033001E001E000CD8
:1058E000000C000C000C000C000C000C0000000070
:1058F00000000000803F803F80010003000300069D
:10590000000C000C0018001800300060807F807FC1
:10591000000000000000000F000F000C000C000C45
:10592000000C000C000C000C000C000C000C000C17
:10593000000C000C000C000F000F000000180018F5
:105940000018000C000C000C000C000600060006FD
:105950000006000300030003000000000000001E1A
:10596000001E0006000600060006000600060006EF
:105970000006000600060006000600060006001EDF
:10598000001E0000000C000C001E0012003300334B
:105990008061806100000000000000000000000045
:1059A00000000000000000000000000000000000F7
:1059B00000000000000000000000000000000000E7
:1059C000000000000000E0FF0000000000380018A8
:1059D000000C0000000000000000000000000000BB
:1059E00000000000000000000000000000000000B7
:1059F0000000000000000000001F803F8061800167
:105A0000801F803F80618063807FC038000000007D
:105A1000000000000060006000600060006E007F19
:105A2000807380618061806180618073007F006E1F
:105A30000000000000000000000000000000000066
:105A4000001E003F80738061006000608061807391
:105A5000003F001E000000000000000080018001E7
:105A600080018001801D803F807380618061806142
:105A700080618073803F801D0000000000000000F6
:105A80000000000000000000001E003F0073806165
:105A9000807F807F00608071003F001E000000005A
:105AA00000000000C007C00F000C000C807F807F4A
:105AB000000C000C000C000C000C000C000C000C86
:105AC0000000000000000000000000000000801D39
:105AD000803F807380618061806180618073803FDE
